{
  "_format": "hh-sol-artifact-1",
  "contractName": "Creature",
  "sourceName": "contracts/Creature.sol",
  "abi": [
    {
      "inputs": [
        {
          "internalType": "string",
          "name": "_name",
          "type": "string"
        },
        {
          "internalType": "string",
          "name": "_symbol",
          "type": "string"
        },
        {
          "internalType": "string",
          "name": "_description",
          "type": "string"
        },
        {
          "internalType": "string",
          "name": "_logoIpfs",
          "type": "string"
        },
        {
          "internalType": "string",
          "name": "_coverIpfs",
          "type": "string"
        }
      ],
      "stateMutability": "nonpayable",
      "type": "constructor"
    },
    {
      "anonymous": false,
      "inputs": [
        {
          "indexed": true,
          "internalType": "address",
          "name": "owner",
          "type": "address"
        },
        {
          "indexed": true,
          "internalType": "address",
          "name": "approved",
          "type": "address"
        },
        {
          "indexed": true,
          "internalType": "uint256",
          "name": "tokenId",
          "type": "uint256"
        }
      ],
      "name": "Approval",
      "type": "event"
    },
    {
      "anonymous": false,
      "inputs": [
        {
          "indexed": true,
          "internalType": "address",
          "name": "owner",
          "type": "address"
        },
        {
          "indexed": true,
          "internalType": "address",
          "name": "operator",
          "type": "address"
        },
        {
          "indexed": false,
          "internalType": "bool",
          "name": "approved",
          "type": "bool"
        }
      ],
      "name": "ApprovalForAll",
      "type": "event"
    },
    {
      "anonymous": false,
      "inputs": [
        {
          "indexed": false,
          "internalType": "address",
          "name": "userAddress",
          "type": "address"
        },
        {
          "indexed": false,
          "internalType": "address payable",
          "name": "relayerAddress",
          "type": "address"
        },
        {
          "indexed": false,
          "internalType": "bytes",
          "name": "functionSignature",
          "type": "bytes"
        }
      ],
      "name": "MetaTransactionExecuted",
      "type": "event"
    },
    {
      "anonymous": false,
      "inputs": [
        {
          "indexed": true,
          "internalType": "address",
          "name": "previousOwner",
          "type": "address"
        },
        {
          "indexed": true,
          "internalType": "address",
          "name": "newOwner",
          "type": "address"
        }
      ],
      "name": "OwnershipTransferred",
      "type": "event"
    },
    {
      "anonymous": false,
      "inputs": [
        {
          "indexed": true,
          "internalType": "address",
          "name": "from",
          "type": "address"
        },
        {
          "indexed": true,
          "internalType": "address",
          "name": "to",
          "type": "address"
        },
        {
          "indexed": true,
          "internalType": "uint256",
          "name": "tokenId",
          "type": "uint256"
        }
      ],
      "name": "Transfer",
      "type": "event"
    },
    {
      "inputs": [],
      "name": "ERC712_VERSION",
      "outputs": [
        {
          "internalType": "string",
          "name": "",
          "type": "string"
        }
      ],
      "stateMutability": "view",
      "type": "function"
    },
    {
      "inputs": [
        {
          "internalType": "address",
          "name": "to",
          "type": "address"
        },
        {
          "internalType": "uint256",
          "name": "tokenId",
          "type": "uint256"
        }
      ],
      "name": "approve",
      "outputs": [],
      "stateMutability": "nonpayable",
      "type": "function"
    },
    {
      "inputs": [
        {
          "internalType": "address",
          "name": "owner",
          "type": "address"
        }
      ],
      "name": "balanceOf",
      "outputs": [
        {
          "internalType": "uint256",
          "name": "",
          "type": "uint256"
        }
      ],
      "stateMutability": "view",
      "type": "function"
    },
    {
      "inputs": [],
      "name": "baseTokenURI",
      "outputs": [
        {
          "internalType": "string",
          "name": "",
          "type": "string"
        }
      ],
      "stateMutability": "view",
      "type": "function"
    },
    {
      "inputs": [
        {
          "internalType": "address",
          "name": "userAddress",
          "type": "address"
        },
        {
          "internalType": "bytes",
          "name": "functionSignature",
          "type": "bytes"
        },
        {
          "internalType": "bytes32",
          "name": "sigR",
          "type": "bytes32"
        },
        {
          "internalType": "bytes32",
          "name": "sigS",
          "type": "bytes32"
        },
        {
          "internalType": "uint8",
          "name": "sigV",
          "type": "uint8"
        }
      ],
      "name": "executeMetaTransaction",
      "outputs": [
        {
          "internalType": "bytes",
          "name": "",
          "type": "bytes"
        }
      ],
      "stateMutability": "payable",
      "type": "function"
    },
    {
      "inputs": [
        {
          "internalType": "uint256",
          "name": "tokenId",
          "type": "uint256"
        }
      ],
      "name": "getApproved",
      "outputs": [
        {
          "internalType": "address",
          "name": "",
          "type": "address"
        }
      ],
      "stateMutability": "view",
      "type": "function"
    },
    {
      "inputs": [],
      "name": "getChainId",
      "outputs": [
        {
          "internalType": "uint256",
          "name": "",
          "type": "uint256"
        }
      ],
      "stateMutability": "view",
      "type": "function"
    },
    {
      "inputs": [],
      "name": "getDomainSeperator",
      "outputs": [
        {
          "internalType": "bytes32",
          "name": "",
          "type": "bytes32"
        }
      ],
      "stateMutability": "view",
      "type": "function"
    },
    {
      "inputs": [
        {
          "internalType": "address",
          "name": "user",
          "type": "address"
        }
      ],
      "name": "getNonce",
      "outputs": [
        {
          "internalType": "uint256",
          "name": "nonce",
          "type": "uint256"
        }
      ],
      "stateMutability": "view",
      "type": "function"
    },
    {
      "inputs": [
        {
          "internalType": "address",
          "name": "owner",
          "type": "address"
        },
        {
          "internalType": "address",
          "name": "operator",
          "type": "address"
        }
      ],
      "name": "isApprovedForAll",
      "outputs": [
        {
          "internalType": "bool",
          "name": "",
          "type": "bool"
        }
      ],
      "stateMutability": "view",
      "type": "function"
    },
    {
      "inputs": [
        {
          "internalType": "address",
          "name": "_to",
          "type": "address"
        }
      ],
      "name": "mintTo",
      "outputs": [],
      "stateMutability": "nonpayable",
      "type": "function"
    },
    {
      "inputs": [],
      "name": "name",
      "outputs": [
        {
          "internalType": "string",
          "name": "",
          "type": "string"
        }
      ],
      "stateMutability": "view",
      "type": "function"
    },
    {
      "inputs": [],
      "name": "owner",
      "outputs": [
        {
          "internalType": "address",
          "name": "",
          "type": "address"
        }
      ],
      "stateMutability": "view",
      "type": "function"
    },
    {
      "inputs": [
        {
          "internalType": "uint256",
          "name": "tokenId",
          "type": "uint256"
        }
      ],
      "name": "ownerOf",
      "outputs": [
        {
          "internalType": "address",
          "name": "",
          "type": "address"
        }
      ],
      "stateMutability": "view",
      "type": "function"
    },
    {
      "inputs": [],
      "name": "renounceOwnership",
      "outputs": [],
      "stateMutability": "nonpayable",
      "type": "function"
    },
    {
      "inputs": [
        {
          "internalType": "address",
          "name": "from",
          "type": "address"
        },
        {
          "internalType": "address",
          "name": "to",
          "type": "address"
        },
        {
          "internalType": "uint256",
          "name": "tokenId",
          "type": "uint256"
        }
      ],
      "name": "safeTransferFrom",
      "outputs": [],
      "stateMutability": "nonpayable",
      "type": "function"
    },
    {
      "inputs": [
        {
          "internalType": "address",
          "name": "from",
          "type": "address"
        },
        {
          "internalType": "address",
          "name": "to",
          "type": "address"
        },
        {
          "internalType": "uint256",
          "name": "tokenId",
          "type": "uint256"
        },
        {
          "internalType": "bytes",
          "name": "_data",
          "type": "bytes"
        }
      ],
      "name": "safeTransferFrom",
      "outputs": [],
      "stateMutability": "nonpayable",
      "type": "function"
    },
    {
      "inputs": [
        {
          "internalType": "address",
          "name": "operator",
          "type": "address"
        },
        {
          "internalType": "bool",
          "name": "approved",
          "type": "bool"
        }
      ],
      "name": "setApprovalForAll",
      "outputs": [],
      "stateMutability": "nonpayable",
      "type": "function"
    },
    {
      "inputs": [
        {
          "internalType": "string",
          "name": "_uri",
          "type": "string"
        }
      ],
      "name": "setBaseTokenURI",
      "outputs": [],
      "stateMutability": "nonpayable",
      "type": "function"
    },
    {
      "inputs": [
        {
          "internalType": "bytes4",
          "name": "interfaceId",
          "type": "bytes4"
        }
      ],
      "name": "supportsInterface",
      "outputs": [
        {
          "internalType": "bool",
          "name": "",
          "type": "bool"
        }
      ],
      "stateMutability": "view",
      "type": "function"
    },
    {
      "inputs": [],
      "name": "symbol",
      "outputs": [
        {
          "internalType": "string",
          "name": "",
          "type": "string"
        }
      ],
      "stateMutability": "view",
      "type": "function"
    },
    {
      "inputs": [
        {
          "internalType": "uint256",
          "name": "index",
          "type": "uint256"
        }
      ],
      "name": "tokenByIndex",
      "outputs": [
        {
          "internalType": "uint256",
          "name": "",
          "type": "uint256"
        }
      ],
      "stateMutability": "view",
      "type": "function"
    },
    {
      "inputs": [
        {
          "internalType": "address",
          "name": "owner",
          "type": "address"
        },
        {
          "internalType": "uint256",
          "name": "index",
          "type": "uint256"
        }
      ],
      "name": "tokenOfOwnerByIndex",
      "outputs": [
        {
          "internalType": "uint256",
          "name": "",
          "type": "uint256"
        }
      ],
      "stateMutability": "view",
      "type": "function"
    },
    {
      "inputs": [
        {
          "internalType": "uint256",
          "name": "_tokenId",
          "type": "uint256"
        }
      ],
      "name": "tokenURI",
      "outputs": [
        {
          "internalType": "string",
          "name": "",
          "type": "string"
        }
      ],
      "stateMutability": "view",
      "type": "function"
    },
    {
      "inputs": [],
      "name": "totalSupply",
      "outputs": [
        {
          "internalType": "uint256",
          "name": "",
          "type": "uint256"
        }
      ],
      "stateMutability": "view",
      "type": "function"
    },
    {
      "inputs": [
        {
          "internalType": "address",
          "name": "from",
          "type": "address"
        },
        {
          "internalType": "address",
          "name": "to",
          "type": "address"
        },
        {
          "internalType": "uint256",
          "name": "tokenId",
          "type": "uint256"
        }
      ],
      "name": "transferFrom",
      "outputs": [],
      "stateMutability": "nonpayable",
      "type": "function"
    },
    {
      "inputs": [
        {
          "internalType": "address",
          "name": "newOwner",
          "type": "address"
        }
      ],
      "name": "transferOwnership",
      "outputs": [],
      "stateMutability": "nonpayable",
      "type": "function"
    }
  ],
  "bytecode": "0x6080604052600a805460ff1916905560006011553480156200002057600080fd5b50604051620029e0380380620029e0833981016040819052620000439162000416565b84848484848484816000908051906020019062000062929190620002b9565b50805162000078906001906020840190620002b9565b50505060006200008d6200013860201b60201c565b600d80546001600160a01b0319166001600160a01b038316908117909155604051919250906000907f8be0079c531659141344cd1fd0a4f28419497f9722a3daafe3b4186f6b6457e0908290a3508251620000f090600e906020860190620002b9565b5081516200010690600f906020850190620002b9565b5080516200011c906010906020840190620002b9565b50620001288562000154565b505050505050505050506200054a565b60006200014f620001b860201b6200108e1760201c565b905090565b600a5460ff16156200019d5760405162461bcd60e51b815260206004820152600e60248201526d185b1c9958591e481a5b9a5d195960921b604482015260640160405180910390fd5b620001a88162000217565b50600a805460ff19166001179055565b6000333014156200021157600080368080601f0160208091040260200160405190810160405280939291908181526020018383808284376000920191909152505050503601516001600160a01b03169150620002149050565b50335b90565b6040518060800160405280604f815260200162002991604f9139805160209182012082519282019290922060408051808201825260018152603160f81b90840152805180840194909452838101919091527fc89efdaa54c0f20c7adf612882df0950f5a951637e0307cdcb4c672f298b8bc660608401523060808401524660a0808501919091528151808503909101815260c090930190528151910120600b55565b828054620002c790620004f7565b90600052602060002090601f016020900481019282620002eb576000855562000336565b82601f106200030657805160ff191683800117855562000336565b8280016001018555821562000336579182015b828111156200033657825182559160200191906001019062000319565b506200034492915062000348565b5090565b5b8082111562000344576000815560010162000349565b600082601f8301126200037157600080fd5b81516001600160401b03808211156200038e576200038e62000534565b604051601f8301601f19908116603f01168101908282118183101715620003b957620003b962000534565b81604052838152602092508683858801011115620003d657600080fd5b600091505b83821015620003fa5785820183015181830184015290820190620003db565b838211156200040c5760008385830101525b9695505050505050565b600080600080600060a086880312156200042f57600080fd5b85516001600160401b03808211156200044757600080fd5b6200045589838a016200035f565b965060208801519150808211156200046c57600080fd5b6200047a89838a016200035f565b955060408801519150808211156200049157600080fd5b6200049f89838a016200035f565b94506060880151915080821115620004b657600080fd5b620004c489838a016200035f565b93506080880151915080821115620004db57600080fd5b50620004ea888289016200035f565b9150509295509295909350565b600181811c908216806200050c57607f821691505b602082108114156200052e57634e487b7160e01b600052602260045260246000fd5b50919050565b634e487b7160e01b600052604160045260246000fd5b612437806200055a6000396000f3fe60806040526004361061019c5760003560e01c806342842e0e116100ec57806395d89b411161008a578063c87b56dd11610064578063c87b56dd14610497578063d547cfb7146104b7578063e985e9c5146104cc578063f2fde38b1461051557600080fd5b806395d89b4114610442578063a22cb46514610457578063b88d4fde1461047757600080fd5b806370a08231116100c657806370a08231146103cf578063715018a6146103ef578063755edd17146104045780638da5cb5b1461042457600080fd5b806342842e0e1461036f5780634f6ccce71461038f5780636352211e146103af57600080fd5b806318160ddd116101595780632d0335ab116101335780632d0335ab146102e65780632f745c591461031c57806330176e131461033c5780633408e4701461035c57600080fd5b806318160ddd1461029257806320379ee5146102b157806323b872dd146102c657600080fd5b806301ffc9a7146101a157806306fdde03146101d6578063081812fc146101f8578063095ea7b3146102305780630c53c51c146102525780630f7e597014610265575b600080fd5b3480156101ad57600080fd5b506101c16101bc366004611f2c565b610535565b60405190151581526020015b60405180910390f35b3480156101e257600080fd5b506101eb610560565b6040516101cd9190612173565b34801561020457600080fd5b50610218610213366004611faf565b6105f2565b6040516001600160a01b0390911681526020016101cd565b34801561023c57600080fd5b5061025061024b366004611f02565b61068c565b005b6101eb610260366004611e86565b6107b4565b34801561027157600080fd5b506101eb604051806040016040528060018152602001603160f81b81525081565b34801561029e57600080fd5b506008545b6040519081526020016101cd565b3480156102bd57600080fd5b50600b546102a3565b3480156102d257600080fd5b506102506102e1366004611da6565b61099e565b3480156102f257600080fd5b506102a3610301366004611d58565b6001600160a01b03166000908152600c602052604090205490565b34801561032857600080fd5b506102a3610337366004611f02565b6109d6565b34801561034857600080fd5b50610250610357366004611f66565b610a6c565b34801561036857600080fd5b50466102a3565b34801561037b57600080fd5b5061025061038a366004611da6565b610acc565b34801561039b57600080fd5b506102a36103aa366004611faf565b610ae7565b3480156103bb57600080fd5b506102186103ca366004611faf565b610b7a565b3480156103db57600080fd5b506102a36103ea366004611d58565b610bf1565b3480156103fb57600080fd5b50610250610c78565b34801561041057600080fd5b5061025061041f366004611d58565b610d0b565b34801561043057600080fd5b50600d546001600160a01b0316610218565b34801561044e57600080fd5b506101eb610d72565b34801561046357600080fd5b50610250610472366004611e4a565b610d81565b34801561048357600080fd5b50610250610492366004611de2565b610e83565b3480156104a357600080fd5b506101eb6104b2366004611faf565b610ec2565b3480156104c357600080fd5b506101eb610ef6565b3480156104d857600080fd5b506101c16104e7366004611d73565b6001600160a01b03918216600090815260056020908152604080832093909416825291909152205460ff1690565b34801561052157600080fd5b50610250610530366004611d58565b610f84565b60006001600160e01b0319821663780e9d6360e01b148061055a575061055a826110eb565b92915050565b60606000805461056f906122cd565b80601f016020809104026020016040519081016040528092919081815260200182805461059b906122cd565b80156105e85780601f106105bd576101008083540402835291602001916105e8565b820191906000526020600020905b8154815290600101906020018083116105cb57829003601f168201915b5050505050905090565b6000818152600260205260408120546001600160a01b03166106705760405162461bcd60e51b815260206004820152602c60248201527f4552433732313a20617070726f76656420717565727920666f72206e6f6e657860448201526b34b9ba32b73a103a37b5b2b760a11b60648201526084015b60405180910390fd5b506000908152600460205260409020546001600160a01b031690565b600061069782610b7a565b9050806001600160a01b0316836001600160a01b031614156107055760405162461bcd60e51b815260206004820152602160248201527f4552433732313a20617070726f76616c20746f2063757272656e74206f776e656044820152603960f91b6064820152608401610667565b806001600160a01b031661071761113b565b6001600160a01b031614806107335750610733816104e761113b565b6107a55760405162461bcd60e51b815260206004820152603860248201527f4552433732313a20617070726f76652063616c6c6572206973206e6f74206f7760448201527f6e6572206e6f7220617070726f76656420666f7220616c6c00000000000000006064820152608401610667565b6107af838361114a565b505050565b60408051606081810183526001600160a01b0388166000818152600c6020908152908590205484528301529181018690526107f287828787876111b8565b6108485760405162461bcd60e51b815260206004820152602160248201527f5369676e657220616e64207369676e617475726520646f206e6f74206d6174636044820152600d60fb1b6064820152608401610667565b6001600160a01b0387166000908152600c602052604090205461086c9060016112a8565b6001600160a01b0388166000908152600c60205260409081902091909155517f5845892132946850460bff5a0083f71031bc5bf9aadcd40f1de79423eac9b10b906108bc90899033908a9061210a565b60405180910390a1600080306001600160a01b0316888a6040516020016108e492919061202c565b60408051601f19818403018152908290526108fe91612010565b6000604051808303816000865af19150503d806000811461093b576040519150601f19603f3d011682016040523d82523d6000602084013e610940565b606091505b5091509150816109925760405162461bcd60e51b815260206004820152601c60248201527f46756e6374696f6e2063616c6c206e6f74207375636365737366756c000000006044820152606401610667565b98975050505050505050565b6109af6109a961113b565b826112bb565b6109cb5760405162461bcd60e51b81526004016106679061220d565b6107af8383836113b2565b60006109e183610bf1565b8210610a435760405162461bcd60e51b815260206004820152602b60248201527f455243373231456e756d657261626c653a206f776e657220696e646578206f7560448201526a74206f6620626f756e647360a81b6064820152608401610667565b506001600160a01b03919091166000908152600660209081526040808320938352929052205490565b610a7461113b565b6001600160a01b0316610a8f600d546001600160a01b031690565b6001600160a01b031614610ab55760405162461bcd60e51b8152600401610667906121d8565b8051610ac8906012906020840190611c0d565b5050565b6107af83838360405180602001604052806000815250610e83565b6000610af260085490565b8210610b555760405162461bcd60e51b815260206004820152602c60248201527f455243373231456e756d657261626c653a20676c6f62616c20696e646578206f60448201526b7574206f6620626f756e647360a01b6064820152608401610667565b60088281548110610b6857610b68612379565b90600052602060002001549050919050565b6000818152600260205260408120546001600160a01b03168061055a5760405162461bcd60e51b815260206004820152602960248201527f4552433732313a206f776e657220717565727920666f72206e6f6e657869737460448201526832b73a103a37b5b2b760b91b6064820152608401610667565b60006001600160a01b038216610c5c5760405162461bcd60e51b815260206004820152602a60248201527f4552433732313a2062616c616e636520717565727920666f7220746865207a65604482015269726f206164647265737360b01b6064820152608401610667565b506001600160a01b031660009081526003602052604090205490565b610c8061113b565b6001600160a01b0316610c9b600d546001600160a01b031690565b6001600160a01b031614610cc15760405162461bcd60e51b8152600401610667906121d8565b600d546040516000916001600160a01b0316907f8be0079c531659141344cd1fd0a4f28419497f9722a3daafe3b4186f6b6457e0908390a3600d80546001600160a01b0319169055565b610d1361113b565b6001600160a01b0316610d2e600d546001600160a01b031690565b6001600160a01b031614610d545760405162461bcd60e51b8152600401610667906121d8565b6000610d5e61155d565b9050610d6a828261156e565b610ac86116bc565b60606001805461056f906122cd565b610d8961113b565b6001600160a01b0316826001600160a01b03161415610dea5760405162461bcd60e51b815260206004820152601960248201527f4552433732313a20617070726f766520746f2063616c6c6572000000000000006044820152606401610667565b8060056000610df761113b565b6001600160a01b03908116825260208083019390935260409182016000908120918716808252919093529120805460ff191692151592909217909155610e3b61113b565b6001600160a01b03167f17307eab39ab6107e8899845ad3d59bd9653f200f220920489ca2b5937696c3183604051610e77911515815260200190565b60405180910390a35050565b610e94610e8e61113b565b836112bb565b610eb05760405162461bcd60e51b81526004016106679061220d565b610ebc848484846116d3565b50505050565b60606012610ecf83611706565b604051602001610ee0929190612063565b6040516020818303038152906040529050919050565b60128054610f03906122cd565b80601f0160208091040260200160405190810160405280929190818152602001828054610f2f906122cd565b8015610f7c5780601f10610f5157610100808354040283529160200191610f7c565b820191906000526020600020905b815481529060010190602001808311610f5f57829003601f168201915b505050505081565b610f8c61113b565b6001600160a01b0316610fa7600d546001600160a01b031690565b6001600160a01b031614610fcd5760405162461bcd60e51b8152600401610667906121d8565b6001600160a01b0381166110325760405162461bcd60e51b815260206004820152602660248201527f4f776e61626c653a206e6577206f776e657220697320746865207a65726f206160448201526564647265737360d01b6064820152608401610667565b600d546040516001600160a01b038084169216907f8be0079c531659141344cd1fd0a4f28419497f9722a3daafe3b4186f6b6457e090600090a3600d80546001600160a01b0319166001600160a01b0392909216919091179055565b6000333014156110e557600080368080601f0160208091040260200160405190810160405280939291908181526020018383808284376000920191909152505050503601516001600160a01b031691506110e89050565b50335b90565b60006001600160e01b031982166380ac58cd60e01b148061111c57506001600160e01b03198216635b5e139f60e01b145b8061055a57506301ffc9a760e01b6001600160e01b031983161461055a565b600061114561108e565b905090565b600081815260046020526040902080546001600160a01b0319166001600160a01b038416908117909155819061117f82610b7a565b6001600160a01b03167f8c5be1e5ebec7d5bd14f71427d1e84f3dd0314c0f7b2291e5b200ac8c7c3b92560405160405180910390a45050565b60006001600160a01b03861661121e5760405162461bcd60e51b815260206004820152602560248201527f4e61746976654d6574615472616e73616374696f6e3a20494e56414c49445f5360448201526424a3a722a960d91b6064820152608401610667565b600161123161122c87611804565b611881565b6040805160008152602081018083529290925260ff851690820152606081018690526080810185905260a0016020604051602081039080840390855afa15801561127f573d6000803e3d6000fd5b505050602060405103516001600160a01b0316866001600160a01b031614905095945050505050565b60006112b4828461225e565b9392505050565b6000818152600260205260408120546001600160a01b03166113345760405162461bcd60e51b815260206004820152602c60248201527f4552433732313a206f70657261746f7220717565727920666f72206e6f6e657860448201526b34b9ba32b73a103a37b5b2b760a11b6064820152608401610667565b600061133f83610b7a565b9050806001600160a01b0316846001600160a01b0316148061137a5750836001600160a01b031661136f846105f2565b6001600160a01b0316145b806113aa57506001600160a01b0380821660009081526005602090815260408083209388168352929052205460ff165b949350505050565b826001600160a01b03166113c582610b7a565b6001600160a01b03161461142d5760405162461bcd60e51b815260206004820152602960248201527f4552433732313a207472616e73666572206f6620746f6b656e2074686174206960448201526839903737ba1037bbb760b91b6064820152608401610667565b6001600160a01b03821661148f5760405162461bcd60e51b8152602060048201526024808201527f4552433732313a207472616e7366657220746f20746865207a65726f206164646044820152637265737360e01b6064820152608401610667565b61149a8383836118b1565b6114a560008261114a565b6001600160a01b03831660009081526003602052604081208054600192906114ce90849061228a565b90915550506001600160a01b03821660009081526003602052604081208054600192906114fc90849061225e565b909155505060008181526002602052604080822080546001600160a01b0319166001600160a01b0386811691821790925591518493918716917fddf252ad1be2c89b69c2b068fc378daa952ba7f163c4a11628f55a4df523b3ef91a4505050565b6011546000906111459060016112a8565b6001600160a01b0382166115c45760405162461bcd60e51b815260206004820181905260248201527f4552433732313a206d696e7420746f20746865207a65726f20616464726573736044820152606401610667565b6000818152600260205260409020546001600160a01b0316156116295760405162461bcd60e51b815260206004820152601c60248201527f4552433732313a20746f6b656e20616c7265616479206d696e746564000000006044820152606401610667565b611635600083836118b1565b6001600160a01b038216600090815260036020526040812080546001929061165e90849061225e565b909155505060008181526002602052604080822080546001600160a01b0319166001600160a01b03861690811790915590518392907fddf252ad1be2c89b69c2b068fc378daa952ba7f163c4a11628f55a4df523b3ef908290a45050565b601180549060006116cc83612308565b9190505550565b6116de8484846113b2565b6116ea84848484611969565b610ebc5760405162461bcd60e51b815260040161066790612186565b60608161172a5750506040805180820190915260018152600360fc1b602082015290565b8160005b8115611754578061173e81612308565b915061174d9050600a83612276565b915061172e565b60008167ffffffffffffffff81111561176f5761176f61238f565b6040519080825280601f01601f191660200182016040528015611799576020820181803683370190505b5090505b84156113aa576117ae60018361228a565b91506117bb600a86612323565b6117c690603061225e565b60f81b8183815181106117db576117db612379565b60200101906001600160f81b031916908160001a9053506117fd600a86612276565b945061179d565b60006040518060800160405280604381526020016123bf6043913980516020918201208351848301516040808701518051908601209051611864950193845260208401929092526001600160a01b03166040830152606082015260800190565b604051602081830303815290604052805190602001209050919050565b600061188c600b5490565b60405161190160f01b6020820152602281019190915260428101839052606201611864565b6001600160a01b03831661190c5761190781600880546000838152600960205260408120829055600182018355919091527ff3f7a9fe364faab93b216da50a3214154f22a0a2b415b23a84c8169e8b636ee30155565b61192f565b816001600160a01b0316836001600160a01b03161461192f5761192f8382611a7d565b6001600160a01b038216611946576107af81611b1a565b826001600160a01b0316826001600160a01b0316146107af576107af8282611bc9565b60006001600160a01b0384163b15611a7257836001600160a01b031663150b7a0261199261113b565b8786866040518563ffffffff1660e01b81526004016119b49493929190612136565b602060405180830381600087803b1580156119ce57600080fd5b505af19250505080156119fe575060408051601f3d908101601f191682019092526119fb91810190611f49565b60015b611a58573d808015611a2c576040519150601f19603f3d011682016040523d82523d6000602084013e611a31565b606091505b508051611a505760405162461bcd60e51b815260040161066790612186565b805181602001fd5b6001600160e01b031916630a85bd0160e11b1490506113aa565b506001949350505050565b60006001611a8a84610bf1565b611a94919061228a565b600083815260076020526040902054909150808214611ae7576001600160a01b03841660009081526006602090815260408083208584528252808320548484528184208190558352600790915290208190555b5060009182526007602090815260408084208490556001600160a01b039094168352600681528383209183525290812055565b600854600090611b2c9060019061228a565b60008381526009602052604081205460088054939450909284908110611b5457611b54612379565b906000526020600020015490508060088381548110611b7557611b75612379565b6000918252602080832090910192909255828152600990915260408082208490558582528120556008805480611bad57611bad612363565b6001900381819060005260206000200160009055905550505050565b6000611bd483610bf1565b6001600160a01b039093166000908152600660209081526040808320868452825280832085905593825260079052919091209190915550565b828054611c19906122cd565b90600052602060002090601f016020900481019282611c3b5760008555611c81565b82601f10611c5457805160ff1916838001178555611c81565b82800160010185558215611c81579182015b82811115611c81578251825591602001919060010190611c66565b50611c8d929150611c91565b5090565b5b80821115611c8d5760008155600101611c92565b600067ffffffffffffffff80841115611cc157611cc161238f565b604051601f8501601f19908116603f01168101908282118183101715611ce957611ce961238f565b81604052809350858152868686011115611d0257600080fd5b858560208301376000602087830101525050509392505050565b80356001600160a01b0381168114611d3357600080fd5b919050565b600082601f830112611d4957600080fd5b6112b483833560208501611ca6565b600060208284031215611d6a57600080fd5b6112b482611d1c565b60008060408385031215611d8657600080fd5b611d8f83611d1c565b9150611d9d60208401611d1c565b90509250929050565b600080600060608486031215611dbb57600080fd5b611dc484611d1c565b9250611dd260208501611d1c565b9150604084013590509250925092565b60008060008060808587031215611df857600080fd5b611e0185611d1c565b9350611e0f60208601611d1c565b925060408501359150606085013567ffffffffffffffff811115611e3257600080fd5b611e3e87828801611d38565b91505092959194509250565b60008060408385031215611e5d57600080fd5b611e6683611d1c565b915060208301358015158114611e7b57600080fd5b809150509250929050565b600080600080600060a08688031215611e9e57600080fd5b611ea786611d1c565b9450602086013567ffffffffffffffff811115611ec357600080fd5b611ecf88828901611d38565b9450506040860135925060608601359150608086013560ff81168114611ef457600080fd5b809150509295509295909350565b60008060408385031215611f1557600080fd5b611f1e83611d1c565b946020939093013593505050565b600060208284031215611f3e57600080fd5b81356112b4816123a5565b600060208284031215611f5b57600080fd5b81516112b4816123a5565b600060208284031215611f7857600080fd5b813567ffffffffffffffff811115611f8f57600080fd5b8201601f81018413611fa057600080fd5b6113aa84823560208401611ca6565b600060208284031215611fc157600080fd5b5035919050565b60008151808452611fe08160208601602086016122a1565b601f01601f19169290920160200192915050565b600081516120068185602086016122a1565b9290920192915050565b600082516120228184602087016122a1565b9190910192915050565b6000835161203e8184602088016122a1565b60609390931b6bffffffffffffffffffffffff19169190920190815260140192915050565b600080845481600182811c91508083168061207f57607f831692505b602080841082141561209f57634e487b7160e01b86526022600452602486fd5b8180156120b357600181146120c4576120f1565b60ff198616895284890196506120f1565b60008b81526020902060005b868110156120e95781548b8201529085019083016120d0565b505084890196505b5050505050506121018185611ff4565b95945050505050565b6001600160a01b0384811682528316602082015260606040820181905260009061210190830184611fc8565b6001600160a01b038581168252841660208201526040810183905260806060820181905260009061216990830184611fc8565b9695505050505050565b6020815260006112b46020830184611fc8565b60208082526032908201527f4552433732313a207472616e7366657220746f206e6f6e20455243373231526560408201527131b2b4bb32b91034b6b83632b6b2b73a32b960711b606082015260800190565b6020808252818101527f4f776e61626c653a2063616c6c6572206973206e6f7420746865206f776e6572604082015260600190565b60208082526031908201527f4552433732313a207472616e736665722063616c6c6572206973206e6f74206f6040820152701ddb995c881b9bdc88185c1c1c9bdd9959607a1b606082015260800190565b6000821982111561227157612271612337565b500190565b6000826122855761228561234d565b500490565b60008282101561229c5761229c612337565b500390565b60005b838110156122bc5781810151838201526020016122a4565b83811115610ebc5750506000910152565b600181811c908216806122e157607f821691505b6020821081141561230257634e487b7160e01b600052602260045260246000fd5b50919050565b600060001982141561231c5761231c612337565b5060010190565b6000826123325761233261234d565b500690565b634e487b7160e01b600052601160045260246000fd5b634e487b7160e01b600052601260045260246000fd5b634e487b7160e01b600052603160045260246000fd5b634e487b7160e01b600052603260045260246000fd5b634e487b7160e01b600052604160045260246000fd5b6001600160e01b0319811681146123bb57600080fd5b5056fe4d6574615472616e73616374696f6e2875696e74323536206e6f6e63652c616464726573732066726f6d2c62797465732066756e6374696f6e5369676e617475726529a2646970667358221220ddf22214ec94adbf725a9f7be2658474b60e5514b9b7fbfa2ed10abedd384d2064736f6c63430008060033454950373132446f6d61696e28737472696e67206e616d652c737472696e672076657273696f6e2c6164647265737320766572696679696e67436f6e74726163742c627974657333322073616c7429",
  "linkReferences": {},
  "deployedLinkReferences": {}
}