{
  "_format": "hh-sol-artifact-1",
  "contractName": "MarketPlace",
  "sourceName": "contracts/MarketPlace.sol",
  "abi": [
    {
      "anonymous": false,
      "inputs": [
        {
          "indexed": true,
          "internalType": "address",
          "name": "previousOwner",
          "type": "address"
        },
        {
          "indexed": true,
          "internalType": "address",
          "name": "newOwner",
          "type": "address"
        }
      ],
      "name": "OwnershipTransferred",
      "type": "event"
    },
    {
      "inputs": [
        {
          "internalType": "address",
          "name": "_NFTAddress",
          "type": "address"
        },
        {
          "internalType": "uint256",
          "name": "_tokenId",
          "type": "uint256"
        }
      ],
      "name": "buy",
      "outputs": [],
      "stateMutability": "nonpayable",
      "type": "function"
    },
    {
      "inputs": [
        {
          "internalType": "address",
          "name": "_NFTAddress",
          "type": "address"
        },
        {
          "internalType": "uint256",
          "name": "_tokenId",
          "type": "uint256"
        }
      ],
      "name": "buyWithBNB",
      "outputs": [],
      "stateMutability": "payable",
      "type": "function"
    },
    {
      "inputs": [
        {
          "internalType": "address",
          "name": "_NFTAddress",
          "type": "address"
        },
        {
          "internalType": "uint256",
          "name": "_tokenId",
          "type": "uint256"
        }
      ],
      "name": "cancel",
      "outputs": [],
      "stateMutability": "nonpayable",
      "type": "function"
    },
    {
      "inputs": [
        {
          "internalType": "address",
          "name": "_NFTAddress",
          "type": "address"
        },
        {
          "internalType": "uint256",
          "name": "_tokenId",
          "type": "uint256"
        }
      ],
      "name": "getItem",
      "outputs": [
        {
          "components": [
            {
              "internalType": "address",
              "name": "ownerAddress",
              "type": "address"
            },
            {
              "internalType": "address",
              "name": "tokenAddress",
              "type": "address"
            },
            {
              "internalType": "address",
              "name": "NFTAddress",
              "type": "address"
            },
            {
              "internalType": "uint256",
              "name": "tokenId",
              "type": "uint256"
            },
            {
              "internalType": "uint256",
              "name": "price",
              "type": "uint256"
            }
          ],
          "internalType": "struct MarketPlace.Item",
          "name": "",
          "type": "tuple"
        }
      ],
      "stateMutability": "view",
      "type": "function"
    },
    {
      "inputs": [
        {
          "internalType": "address",
          "name": "_NFTAddress",
          "type": "address"
        },
        {
          "internalType": "uint256",
          "name": "_tokenId",
          "type": "uint256"
        }
      ],
      "name": "getKey",
      "outputs": [
        {
          "internalType": "string",
          "name": "",
          "type": "string"
        }
      ],
      "stateMutability": "pure",
      "type": "function"
    },
    {
      "inputs": [
        {
          "internalType": "address",
          "name": "",
          "type": "address"
        },
        {
          "internalType": "address",
          "name": "",
          "type": "address"
        },
        {
          "internalType": "uint256",
          "name": "",
          "type": "uint256"
        },
        {
          "internalType": "bytes",
          "name": "",
          "type": "bytes"
        }
      ],
      "name": "onERC721Received",
      "outputs": [
        {
          "internalType": "bytes4",
          "name": "",
          "type": "bytes4"
        }
      ],
      "stateMutability": "nonpayable",
      "type": "function"
    },
    {
      "inputs": [],
      "name": "owner",
      "outputs": [
        {
          "internalType": "address",
          "name": "",
          "type": "address"
        }
      ],
      "stateMutability": "view",
      "type": "function"
    },
    {
      "inputs": [],
      "name": "renounceOwnership",
      "outputs": [],
      "stateMutability": "nonpayable",
      "type": "function"
    },
    {
      "inputs": [
        {
          "components": [
            {
              "internalType": "address",
              "name": "ownerAddress",
              "type": "address"
            },
            {
              "internalType": "address",
              "name": "tokenAddress",
              "type": "address"
            },
            {
              "internalType": "address",
              "name": "NFTAddress",
              "type": "address"
            },
            {
              "internalType": "uint256",
              "name": "tokenId",
              "type": "uint256"
            },
            {
              "internalType": "uint256",
              "name": "price",
              "type": "uint256"
            }
          ],
          "internalType": "struct MarketPlace.Item[]",
          "name": "_sellItems",
          "type": "tuple[]"
        }
      ],
      "name": "sell",
      "outputs": [],
      "stateMutability": "nonpayable",
      "type": "function"
    },
    {
      "inputs": [
        {
          "components": [
            {
              "internalType": "address",
              "name": "ownerAddress",
              "type": "address"
            },
            {
              "internalType": "address",
              "name": "tokenAddress",
              "type": "address"
            },
            {
              "internalType": "address",
              "name": "NFTAddress",
              "type": "address"
            },
            {
              "internalType": "uint256",
              "name": "tokenId",
              "type": "uint256"
            },
            {
              "internalType": "uint256",
              "name": "price",
              "type": "uint256"
            }
          ],
          "internalType": "struct MarketPlace.Item",
          "name": "_sellItem",
          "type": "tuple"
        }
      ],
      "name": "sellItem",
      "outputs": [],
      "stateMutability": "nonpayable",
      "type": "function"
    },
    {
      "inputs": [
        {
          "internalType": "address payable",
          "name": "_wallet",
          "type": "address"
        }
      ],
      "name": "setWallet",
      "outputs": [],
      "stateMutability": "nonpayable",
      "type": "function"
    },
    {
      "inputs": [
        {
          "internalType": "address",
          "name": "newOwner",
          "type": "address"
        }
      ],
      "name": "transferOwnership",
      "outputs": [],
      "stateMutability": "nonpayable",
      "type": "function"
    }
  ],
  "bytecode": "0x608060405234801561001057600080fd5b5061001a3361001f565b61006f565b600080546001600160a01b038381166001600160a01b0319831681178455604051919092169283917f8be0079c531659141344cd1fd0a4f28419497f9722a3daafe3b4186f6b6457e09190a35050565b6114688061007e6000396000f3fe6080604052600436106100a75760003560e01c8063a369f72e11610064578063a369f72e14610194578063b8a80aac146101c1578063cce7ec131461022b578063deaa59df1461024b578063f2fde38b1461026b578063f4ecc6e31461028b57600080fd5b8063150b7a02146100ac5780634ef9fc02146100f5578063715018a6146101175780637971b40b1461012c5780638da5cb5b1461014c57806398590ef914610174575b600080fd5b3480156100b857600080fd5b506100d76100c7366004610fd7565b630a85bd0160e11b949350505050565b6040516001600160e01b031990911681526020015b60405180910390f35b34801561010157600080fd5b506101156101103660046111a3565b61029e565b005b34801561012357600080fd5b50610115610440565b34801561013857600080fd5b506101156101473660046110c7565b610476565b34801561015857600080fd5b506000546040516001600160a01b0390911681526020016100ec565b34801561018057600080fd5b5061011561018f36600461109b565b6106df565b3480156101a057600080fd5b506101b46101af36600461109b565b6107e5565b6040516100ec919061125a565b3480156101cd57600080fd5b506101e16101dc36600461109b565b610819565b6040805182516001600160a01b039081168252602080850151821690830152838301511691810191909152606080830151908201526080918201519181019190915260a0016100ec565b34801561023757600080fd5b5061011561024636600461109b565b6108bc565b34801561025757600080fd5b50610115610266366004610f9d565b610b92565b34801561027757600080fd5b50610115610286366004610f9d565b610bde565b61011561029936600461109b565b610c79565b604081810151606083015191516331a9108f60e11b815260048101929092529033906001600160a01b03831690636352211e9060240160206040518083038186803b1580156102ec57600080fd5b505afa158015610300573d6000803e3d6000fd5b505050506040513d601f19601f820116820180604052508101906103249190610fba565b6001600160a01b0316146103535760405162461bcd60e51b815260040161034a906112c2565b60405180910390fd5b816001610368846040015185606001516107e5565b604051610375919061121a565b9081526040805160209281900383018120845181546001600160a01b03199081166001600160a01b039283161783559486015160018301805487169183169190911790559285015160028201805490951690841617909355606080850151600385015560809094015160049384015592850151632142170760e11b8452908416926342842e0e9261040a923392309201611236565b600060405180830381600087803b15801561042457600080fd5b505af1158015610438573d6000803e3d6000fd5b505050505050565b6000546001600160a01b0316331461046a5760405162461bcd60e51b815260040161034a9061128d565b6104746000610d70565b565b6000805b82518110156106da57828181518110610495576104956113f1565b6020026020010151604001519150336001600160a01b0316826001600160a01b0316636352211e8584815181106104ce576104ce6113f1565b6020026020010151606001516040518263ffffffff1660e01b81526004016104f891815260200190565b60206040518083038186803b15801561051057600080fd5b505afa158015610524573d6000803e3d6000fd5b505050506040513d601f19601f820116820180604052508101906105489190610fba565b6001600160a01b03161461056e5760405162461bcd60e51b815260040161034a906112c2565b828181518110610580576105806113f1565b602002602001015160016105ce85848151811061059f5761059f6113f1565b6020026020010151604001518685815181106105bd576105bd6113f1565b6020026020010151606001516107e5565b6040516105db919061121a565b9081526040805160209281900383019020835181546001600160a01b03199081166001600160a01b039283161783559385015160018301805486169183169190911790559184015160028201805490941690831617909255606083015160038301556080909201516004909101558351908316906342842e0e903390309087908690811061066b5761066b6113f1565b6020026020010151606001516040518463ffffffff1660e01b815260040161069593929190611236565b600060405180830381600087803b1580156106af57600080fd5b505af11580156106c3573d6000803e3d6000fd5b5050505080806106d290611396565b91505061047a565b505050565b60006106eb8383610819565b80519091506001600160a01b031633146107175760405162461bcd60e51b815260040161034a906112c2565b60408082015160608301519151632142170760e11b815290916001600160a01b038316916342842e0e916107519130913391600401611236565b600060405180830381600087803b15801561076b57600080fd5b505af115801561077f573d6000803e3d6000fd5b50505050600161078f85856107e5565b60405161079c919061121a565b90815260405190819003602001902080546001600160a01b0319908116825560018201805482169055600282018054909116905560006003820181905560049091015550505050565b6060826107f183610dc0565b6040516020016108029291906111d8565b604051602081830303815290604052905092915050565b6040805160a081018252600080825260208201819052918101829052606081018290526080810191909152600161085084846107e5565b60405161085d919061121a565b90815260408051918290036020908101832060a08401835280546001600160a01b039081168552600182015481169285019290925260028101549091169183019190915260038101546060830152600401546080820152905092915050565b60006108c88383610819565b90508060600151600014156109105760405162461bcd60e51b815260206004820152600e60248201526d1a5d195b481b9bdd08195e1a5cdd60921b604482015260640161034a565b602081015160808201516040516370a0823160e01b81523360048201526001600160a01b038316906370a082319060240160206040518083038186803b15801561095957600080fd5b505afa15801561096d573d6000803e3d6000fd5b505050506040513d601f19601f8201168201806040525081019061099191906111bf565b116109d55760405162461bcd60e51b8152602060048201526014602482015273696e73756666696369656e742062616c616e636560601b604482015260640161034a565b815160808301516040516323b872dd60e01b81526001600160a01b038416926323b872dd92610a0a9233929190600401611236565b602060405180830381600087803b158015610a2457600080fd5b505af1158015610a38573d6000803e3d6000fd5b505050506040513d601f19601f82011682018060405250810190610a5c9190611181565b506040828101516060840151915163095ea7b360e01b81523360048201526024810192909252906001600160a01b0382169063095ea7b3906044015b600060405180830381600087803b158015610ab257600080fd5b505af1158015610ac6573d6000803e3d6000fd5b5050506060840151604051632142170760e11b81526001600160a01b03841692506342842e0e91610afd9130913391600401611236565b600060405180830381600087803b158015610b1757600080fd5b505af1158015610b2b573d6000803e3d6000fd5b505050506001610b3b86866107e5565b604051610b48919061121a565b90815260405190819003602001902080546001600160a01b031990811682556001820180548216905560028201805490911690556000600382018190556004909101555050505050565b6000546001600160a01b03163314610bbc5760405162461bcd60e51b815260040161034a9061128d565b600280546001600160a01b0319166001600160a01b0392909216919091179055565b6000546001600160a01b03163314610c085760405162461bcd60e51b815260040161034a9061128d565b6001600160a01b038116610c6d5760405162461bcd60e51b815260206004820152602660248201527f4f776e61626c653a206e6577206f776e657220697320746865207a65726f206160448201526564647265737360d01b606482015260840161034a565b610c7681610d70565b50565b6000610c858383610819565b9050806060015160001415610ccd5760405162461bcd60e51b815260206004820152600e60248201526d1a5d195b481b9bdd08195e1a5cdd60921b604482015260640161034a565b60808101513490610ce690670de0b6b3a7640000610ec6565b811015610d295760405162461bcd60e51b815260206004820152601160248201527024b739bab33334b1b4b2b73a102127211760791b604482015260640161034a565b610d31610ed9565b6040828101516060840151915163095ea7b360e01b81523360048201526024810192909252906001600160a01b0382169063095ea7b390604401610a98565b600080546001600160a01b038381166001600160a01b0319831681178455604051919092169283917f8be0079c531659141344cd1fd0a4f28419497f9722a3daafe3b4186f6b6457e09190a35050565b606081610de45750506040805180820190915260018152600360fc1b602082015290565b8160005b8115610e0e5780610df881611396565b9150610e079050600a8361133b565b9150610de8565b60008167ffffffffffffffff811115610e2957610e29611407565b6040519080825280601f01601f191660200182016040528015610e53576020820181803683370190505b5090505b8415610ebe57610e6860018361134f565b9150610e75600a866113b1565b610e80906030611323565b60f81b818381518110610e9557610e956113f1565b60200101906001600160f81b031916908160001a905350610eb7600a8661133b565b9450610e57565b949350505050565b6000610ed2828461133b565b9392505050565b6002546040516001600160a01b03909116903480156108fc02916000818181858888f19350505050158015610c76573d6000803e3d6000fd5b600060a08284031215610f2457600080fd5b60405160a0810181811067ffffffffffffffff82111715610f4757610f47611407565b6040529050808235610f588161141d565b81526020830135610f688161141d565b60208201526040830135610f7b8161141d565b8060408301525060608301356060820152608083013560808201525092915050565b600060208284031215610faf57600080fd5b8135610ed28161141d565b600060208284031215610fcc57600080fd5b8151610ed28161141d565b60008060008060808587031215610fed57600080fd5b8435610ff88161141d565b93506020858101356110098161141d565b935060408601359250606086013567ffffffffffffffff8082111561102d57600080fd5b818801915088601f83011261104157600080fd5b81358181111561105357611053611407565b611065601f8201601f191685016112f2565b9150808252898482850101111561107b57600080fd5b808484018584013760008482840101525080935050505092959194509250565b600080604083850312156110ae57600080fd5b82356110b98161141d565b946020939093013593505050565b600060208083850312156110da57600080fd5b823567ffffffffffffffff808211156110f257600080fd5b818501915085601f83011261110657600080fd5b81358181111561111857611118611407565b611126848260051b016112f2565b818152848101925083850160a0808402860187018a101561114657600080fd5b600095505b838610156111735761115d8a83610f12565b855260019590950194938601939081019061114b565b509098975050505050505050565b60006020828403121561119357600080fd5b81518015158114610ed257600080fd5b600060a082840312156111b557600080fd5b610ed28383610f12565b6000602082840312156111d157600080fd5b5051919050565b6bffffffffffffffffffffffff198360601b168152605f60f81b60148201526000825161120c816015850160208701611366565b919091016015019392505050565b6000825161122c818460208701611366565b9190910192915050565b6001600160a01b039384168152919092166020820152604081019190915260600190565b6020815260008251806020840152611279816040850160208701611366565b601f01601f19169190910160400192915050565b6020808252818101527f4f776e61626c653a2063616c6c6572206973206e6f7420746865206f776e6572604082015260600190565b6020808252601690820152756e6f74206f776e6572206f662074686973206974656d60501b604082015260600190565b604051601f8201601f1916810167ffffffffffffffff8111828210171561131b5761131b611407565b604052919050565b60008219821115611336576113366113c5565b500190565b60008261134a5761134a6113db565b500490565b600082821015611361576113616113c5565b500390565b60005b83811015611381578181015183820152602001611369565b83811115611390576000848401525b50505050565b60006000198214156113aa576113aa6113c5565b5060010190565b6000826113c0576113c06113db565b500690565b634e487b7160e01b600052601160045260246000fd5b634e487b7160e01b600052601260045260246000fd5b634e487b7160e01b600052603260045260246000fd5b634e487b7160e01b600052604160045260246000fd5b6001600160a01b0381168114610c7657600080fdfea264697066735822122051d08b11f3d5ae30b112f83ff5c731f74cc55ac48c4d44f1db641c9641cb4f0764736f6c63430008060033",
  "linkReferences": {},
  "deployedLinkReferences": {}
}