{
  "_format": "hh-sol-artifact-1",
  "contractName": "WWINCreature",
  "sourceName": "contracts/WWINCreature.sol",
  "abi": [
    {
      "inputs": [
        {
          "internalType": "string",
          "name": "_name",
          "type": "string"
        },
        {
          "internalType": "string",
          "name": "_symbol",
          "type": "string"
        },
        {
          "internalType": "string",
          "name": "_description",
          "type": "string"
        },
        {
          "internalType": "uint256",
          "name": "_maxSupply",
          "type": "uint256"
        }
      ],
      "stateMutability": "nonpayable",
      "type": "constructor"
    },
    {
      "anonymous": false,
      "inputs": [
        {
          "indexed": true,
          "internalType": "address",
          "name": "owner",
          "type": "address"
        },
        {
          "indexed": true,
          "internalType": "address",
          "name": "approved",
          "type": "address"
        },
        {
          "indexed": true,
          "internalType": "uint256",
          "name": "tokenId",
          "type": "uint256"
        }
      ],
      "name": "Approval",
      "type": "event"
    },
    {
      "anonymous": false,
      "inputs": [
        {
          "indexed": true,
          "internalType": "address",
          "name": "owner",
          "type": "address"
        },
        {
          "indexed": true,
          "internalType": "address",
          "name": "operator",
          "type": "address"
        },
        {
          "indexed": false,
          "internalType": "bool",
          "name": "approved",
          "type": "bool"
        }
      ],
      "name": "ApprovalForAll",
      "type": "event"
    },
    {
      "anonymous": false,
      "inputs": [
        {
          "indexed": false,
          "internalType": "address",
          "name": "userAddress",
          "type": "address"
        },
        {
          "indexed": false,
          "internalType": "address payable",
          "name": "relayerAddress",
          "type": "address"
        },
        {
          "indexed": false,
          "internalType": "bytes",
          "name": "functionSignature",
          "type": "bytes"
        }
      ],
      "name": "MetaTransactionExecuted",
      "type": "event"
    },
    {
      "anonymous": false,
      "inputs": [
        {
          "indexed": true,
          "internalType": "address",
          "name": "previousOwner",
          "type": "address"
        },
        {
          "indexed": true,
          "internalType": "address",
          "name": "newOwner",
          "type": "address"
        }
      ],
      "name": "OwnershipTransferred",
      "type": "event"
    },
    {
      "anonymous": false,
      "inputs": [
        {
          "indexed": true,
          "internalType": "address",
          "name": "from",
          "type": "address"
        },
        {
          "indexed": true,
          "internalType": "address",
          "name": "to",
          "type": "address"
        },
        {
          "indexed": true,
          "internalType": "uint256",
          "name": "tokenId",
          "type": "uint256"
        }
      ],
      "name": "Transfer",
      "type": "event"
    },
    {
      "inputs": [],
      "name": "ERC712_VERSION",
      "outputs": [
        {
          "internalType": "string",
          "name": "",
          "type": "string"
        }
      ],
      "stateMutability": "view",
      "type": "function"
    },
    {
      "inputs": [
        {
          "internalType": "address",
          "name": "to",
          "type": "address"
        },
        {
          "internalType": "uint256",
          "name": "tokenId",
          "type": "uint256"
        }
      ],
      "name": "approve",
      "outputs": [],
      "stateMutability": "nonpayable",
      "type": "function"
    },
    {
      "inputs": [
        {
          "internalType": "address",
          "name": "owner",
          "type": "address"
        }
      ],
      "name": "balanceOf",
      "outputs": [
        {
          "internalType": "uint256",
          "name": "",
          "type": "uint256"
        }
      ],
      "stateMutability": "view",
      "type": "function"
    },
    {
      "inputs": [],
      "name": "baseQrURL",
      "outputs": [
        {
          "internalType": "string",
          "name": "",
          "type": "string"
        }
      ],
      "stateMutability": "view",
      "type": "function"
    },
    {
      "inputs": [],
      "name": "baseTokenURI",
      "outputs": [
        {
          "internalType": "string",
          "name": "",
          "type": "string"
        }
      ],
      "stateMutability": "view",
      "type": "function"
    },
    {
      "inputs": [],
      "name": "description",
      "outputs": [
        {
          "internalType": "string",
          "name": "",
          "type": "string"
        }
      ],
      "stateMutability": "view",
      "type": "function"
    },
    {
      "inputs": [
        {
          "internalType": "address",
          "name": "userAddress",
          "type": "address"
        },
        {
          "internalType": "bytes",
          "name": "functionSignature",
          "type": "bytes"
        },
        {
          "internalType": "bytes32",
          "name": "sigR",
          "type": "bytes32"
        },
        {
          "internalType": "bytes32",
          "name": "sigS",
          "type": "bytes32"
        },
        {
          "internalType": "uint8",
          "name": "sigV",
          "type": "uint8"
        }
      ],
      "name": "executeMetaTransaction",
      "outputs": [
        {
          "internalType": "bytes",
          "name": "",
          "type": "bytes"
        }
      ],
      "stateMutability": "payable",
      "type": "function"
    },
    {
      "inputs": [
        {
          "internalType": "uint256",
          "name": "tokenId",
          "type": "uint256"
        }
      ],
      "name": "getApproved",
      "outputs": [
        {
          "internalType": "address",
          "name": "",
          "type": "address"
        }
      ],
      "stateMutability": "view",
      "type": "function"
    },
    {
      "inputs": [],
      "name": "getChainId",
      "outputs": [
        {
          "internalType": "uint256",
          "name": "",
          "type": "uint256"
        }
      ],
      "stateMutability": "view",
      "type": "function"
    },
    {
      "inputs": [],
      "name": "getDomainSeperator",
      "outputs": [
        {
          "internalType": "bytes32",
          "name": "",
          "type": "bytes32"
        }
      ],
      "stateMutability": "view",
      "type": "function"
    },
    {
      "inputs": [
        {
          "internalType": "address",
          "name": "user",
          "type": "address"
        }
      ],
      "name": "getNonce",
      "outputs": [
        {
          "internalType": "uint256",
          "name": "nonce",
          "type": "uint256"
        }
      ],
      "stateMutability": "view",
      "type": "function"
    },
    {
      "inputs": [
        {
          "internalType": "address",
          "name": "owner",
          "type": "address"
        },
        {
          "internalType": "address",
          "name": "operator",
          "type": "address"
        }
      ],
      "name": "isApprovedForAll",
      "outputs": [
        {
          "internalType": "bool",
          "name": "",
          "type": "bool"
        }
      ],
      "stateMutability": "view",
      "type": "function"
    },
    {
      "inputs": [],
      "name": "maxSupply",
      "outputs": [
        {
          "internalType": "uint256",
          "name": "",
          "type": "uint256"
        }
      ],
      "stateMutability": "view",
      "type": "function"
    },
    {
      "inputs": [
        {
          "internalType": "address",
          "name": "_to",
          "type": "address"
        }
      ],
      "name": "mintTo",
      "outputs": [],
      "stateMutability": "nonpayable",
      "type": "function"
    },
    {
      "inputs": [],
      "name": "name",
      "outputs": [
        {
          "internalType": "string",
          "name": "",
          "type": "string"
        }
      ],
      "stateMutability": "view",
      "type": "function"
    },
    {
      "inputs": [],
      "name": "owner",
      "outputs": [
        {
          "internalType": "address",
          "name": "",
          "type": "address"
        }
      ],
      "stateMutability": "view",
      "type": "function"
    },
    {
      "inputs": [
        {
          "internalType": "uint256",
          "name": "tokenId",
          "type": "uint256"
        }
      ],
      "name": "ownerOf",
      "outputs": [
        {
          "internalType": "address",
          "name": "",
          "type": "address"
        }
      ],
      "stateMutability": "view",
      "type": "function"
    },
    {
      "inputs": [
        {
          "internalType": "uint256",
          "name": "_tokenId",
          "type": "uint256"
        }
      ],
      "name": "qrURL",
      "outputs": [
        {
          "internalType": "string",
          "name": "",
          "type": "string"
        }
      ],
      "stateMutability": "view",
      "type": "function"
    },
    {
      "inputs": [],
      "name": "renounceOwnership",
      "outputs": [],
      "stateMutability": "nonpayable",
      "type": "function"
    },
    {
      "inputs": [
        {
          "internalType": "address",
          "name": "from",
          "type": "address"
        },
        {
          "internalType": "address",
          "name": "to",
          "type": "address"
        },
        {
          "internalType": "uint256",
          "name": "tokenId",
          "type": "uint256"
        }
      ],
      "name": "safeTransferFrom",
      "outputs": [],
      "stateMutability": "nonpayable",
      "type": "function"
    },
    {
      "inputs": [
        {
          "internalType": "address",
          "name": "from",
          "type": "address"
        },
        {
          "internalType": "address",
          "name": "to",
          "type": "address"
        },
        {
          "internalType": "uint256",
          "name": "tokenId",
          "type": "uint256"
        },
        {
          "internalType": "bytes",
          "name": "_data",
          "type": "bytes"
        }
      ],
      "name": "safeTransferFrom",
      "outputs": [],
      "stateMutability": "nonpayable",
      "type": "function"
    },
    {
      "inputs": [
        {
          "internalType": "address",
          "name": "operator",
          "type": "address"
        },
        {
          "internalType": "bool",
          "name": "approved",
          "type": "bool"
        }
      ],
      "name": "setApprovalForAll",
      "outputs": [],
      "stateMutability": "nonpayable",
      "type": "function"
    },
    {
      "inputs": [
        {
          "internalType": "string",
          "name": "_url",
          "type": "string"
        }
      ],
      "name": "setBaseQrURL",
      "outputs": [],
      "stateMutability": "nonpayable",
      "type": "function"
    },
    {
      "inputs": [
        {
          "internalType": "string",
          "name": "_uri",
          "type": "string"
        }
      ],
      "name": "setBaseTokenURI",
      "outputs": [],
      "stateMutability": "nonpayable",
      "type": "function"
    },
    {
      "inputs": [
        {
          "internalType": "string",
          "name": "_description",
          "type": "string"
        }
      ],
      "name": "setDescription",
      "outputs": [],
      "stateMutability": "nonpayable",
      "type": "function"
    },
    {
      "inputs": [
        {
          "internalType": "bytes4",
          "name": "interfaceId",
          "type": "bytes4"
        }
      ],
      "name": "supportsInterface",
      "outputs": [
        {
          "internalType": "bool",
          "name": "",
          "type": "bool"
        }
      ],
      "stateMutability": "view",
      "type": "function"
    },
    {
      "inputs": [],
      "name": "symbol",
      "outputs": [
        {
          "internalType": "string",
          "name": "",
          "type": "string"
        }
      ],
      "stateMutability": "view",
      "type": "function"
    },
    {
      "inputs": [
        {
          "internalType": "uint256",
          "name": "index",
          "type": "uint256"
        }
      ],
      "name": "tokenByIndex",
      "outputs": [
        {
          "internalType": "uint256",
          "name": "",
          "type": "uint256"
        }
      ],
      "stateMutability": "view",
      "type": "function"
    },
    {
      "inputs": [
        {
          "internalType": "address",
          "name": "owner",
          "type": "address"
        },
        {
          "internalType": "uint256",
          "name": "index",
          "type": "uint256"
        }
      ],
      "name": "tokenOfOwnerByIndex",
      "outputs": [
        {
          "internalType": "uint256",
          "name": "",
          "type": "uint256"
        }
      ],
      "stateMutability": "view",
      "type": "function"
    },
    {
      "inputs": [
        {
          "internalType": "uint256",
          "name": "_tokenId",
          "type": "uint256"
        }
      ],
      "name": "tokenURI",
      "outputs": [
        {
          "internalType": "string",
          "name": "",
          "type": "string"
        }
      ],
      "stateMutability": "view",
      "type": "function"
    },
    {
      "inputs": [],
      "name": "totalSupply",
      "outputs": [
        {
          "internalType": "uint256",
          "name": "",
          "type": "uint256"
        }
      ],
      "stateMutability": "view",
      "type": "function"
    },
    {
      "inputs": [
        {
          "internalType": "address",
          "name": "from",
          "type": "address"
        },
        {
          "internalType": "address",
          "name": "to",
          "type": "address"
        },
        {
          "internalType": "uint256",
          "name": "tokenId",
          "type": "uint256"
        }
      ],
      "name": "transferFrom",
      "outputs": [],
      "stateMutability": "nonpayable",
      "type": "function"
    },
    {
      "inputs": [
        {
          "internalType": "address",
          "name": "newOwner",
          "type": "address"
        }
      ],
      "name": "transferOwnership",
      "outputs": [],
      "stateMutability": "nonpayable",
      "type": "function"
    }
  ],
  "bytecode": "0x6080604052600a805460ff191690556000600e553480156200002057600080fd5b5060405162002c8538038062002c858339810160408190526200004391620003ec565b8383838383838160009080519060200190620000619291906200028f565b508051620000779060019060208401906200028f565b50505060006200008c6200010e60201b60201c565b600d80546001600160a01b0319166001600160a01b038316908117909155604051919250906000907f8be0079c531659141344cd1fd0a4f28419497f9722a3daafe3b4186f6b6457e0908290a35060108190558151620000f49060119060208501906200028f565b5062000100846200012a565b5050505050505050620004d8565b6000620001256200018e60201b6200133f1760201c565b905090565b600a5460ff1615620001735760405162461bcd60e51b815260206004820152600e60248201526d185b1c9958591e481a5b9a5d195960921b604482015260640160405180910390fd5b6200017e81620001ed565b50600a805460ff19166001179055565b600033301415620001e757600080368080601f0160208091040260200160405190810160405280939291908181526020018383808284376000920191909152505050503601516001600160a01b03169150620001ea9050565b50335b90565b6040518060800160405280604f815260200162002c36604f9139805160209182012082519282019290922060408051808201825260018152603160f81b90840152805180840194909452838101919091527fc89efdaa54c0f20c7adf612882df0950f5a951637e0307cdcb4c672f298b8bc660608401523060808401524660a0808501919091528151808503909101815260c090930190528151910120600b55565b8280546200029d9062000485565b90600052602060002090601f016020900481019282620002c157600085556200030c565b82601f10620002dc57805160ff19168380011785556200030c565b828001600101855582156200030c579182015b828111156200030c578251825591602001919060010190620002ef565b506200031a9291506200031e565b5090565b5b808211156200031a57600081556001016200031f565b600082601f8301126200034757600080fd5b81516001600160401b0380821115620003645762000364620004c2565b604051601f8301601f19908116603f011681019082821181831017156200038f576200038f620004c2565b81604052838152602092508683858801011115620003ac57600080fd5b600091505b83821015620003d05785820183015181830184015290820190620003b1565b83821115620003e25760008385830101525b9695505050505050565b600080600080608085870312156200040357600080fd5b84516001600160401b03808211156200041b57600080fd5b620004298883890162000335565b955060208701519150808211156200044057600080fd5b6200044e8883890162000335565b945060408701519150808211156200046557600080fd5b50620004748782880162000335565b606096909601519497939650505050565b600181811c908216806200049a57607f821691505b60208210811415620004bc57634e487b7160e01b600052602260045260246000fd5b50919050565b634e487b7160e01b600052604160045260246000fd5b61274e80620004e86000396000f3fe6080604052600436106101ee5760003560e01c806370a082311161010d578063a64f4bd0116100a0578063c87b56dd1161006f578063c87b56dd14610573578063d547cfb714610593578063d5abeb01146105a8578063e985e9c5146105be578063f2fde38b1461060757600080fd5b8063a64f4bd0146104fe578063adb4506c1461051e578063ae0dd3c414610533578063b88d4fde1461055357600080fd5b80638da5cb5b116100dc5780638da5cb5b1461048b57806390c3f38f146104a957806395d89b41146104c9578063a22cb465146104de57600080fd5b806370a0823114610421578063715018a6146104415780637284e41614610456578063755edd171461046b57600080fd5b806323b872dd116101855780633408e470116101545780633408e470146103ae57806342842e0e146103c15780634f6ccce7146103e15780636352211e1461040157600080fd5b806323b872dd146103185780632d0335ab146103385780632f745c591461036e57806330176e131461038e57600080fd5b80630c53c51c116101c15780630c53c51c146102a45780630f7e5970146102b757806318160ddd146102e457806320379ee51461030357600080fd5b806301ffc9a7146101f357806306fdde0314610228578063081812fc1461024a578063095ea7b314610282575b600080fd5b3480156101ff57600080fd5b5061021361020e3660046121dd565b610627565b60405190151581526020015b60405180910390f35b34801561023457600080fd5b5061023d610652565b60405161021f919061248a565b34801561025657600080fd5b5061026a610265366004612260565b6106e4565b6040516001600160a01b03909116815260200161021f565b34801561028e57600080fd5b506102a261029d3660046121b3565b61077e565b005b61023d6102b2366004612137565b6108a6565b3480156102c357600080fd5b5061023d604051806040016040528060018152602001603160f81b81525081565b3480156102f057600080fd5b506008545b60405190815260200161021f565b34801561030f57600080fd5b50600b546102f5565b34801561032457600080fd5b506102a2610333366004612057565b610a90565b34801561034457600080fd5b506102f5610353366004612009565b6001600160a01b03166000908152600c602052604090205490565b34801561037a57600080fd5b506102f56103893660046121b3565b610ac8565b34801561039a57600080fd5b506102a26103a9366004612217565b610b5e565b3480156103ba57600080fd5b50466102f5565b3480156103cd57600080fd5b506102a26103dc366004612057565b610bbe565b3480156103ed57600080fd5b506102f56103fc366004612260565b610bd9565b34801561040d57600080fd5b5061026a61041c366004612260565b610c6c565b34801561042d57600080fd5b506102f561043c366004612009565b610ce3565b34801561044d57600080fd5b506102a2610d6a565b34801561046257600080fd5b5061023d610dfd565b34801561047757600080fd5b506102a2610486366004612009565b610e8b565b34801561049757600080fd5b50600d546001600160a01b031661026a565b3480156104b557600080fd5b506102a26104c4366004612217565b610f4f565b3480156104d557600080fd5b5061023d610fab565b3480156104ea57600080fd5b506102a26104f93660046120fb565b610fba565b34801561050a57600080fd5b5061023d610519366004612260565b6110bc565b34801561052a57600080fd5b5061023d611162565b34801561053f57600080fd5b506102a261054e366004612217565b61116f565b34801561055f57600080fd5b506102a261056e366004612093565b6111cb565b34801561057f57600080fd5b5061023d61058e366004612260565b61120a565b34801561059f57600080fd5b5061023d611228565b3480156105b457600080fd5b506102f560105481565b3480156105ca57600080fd5b506102136105d9366004612024565b6001600160a01b03918216600090815260056020908152604080832093909416825291909152205460ff1690565b34801561061357600080fd5b506102a2610622366004612009565b611235565b60006001600160e01b0319821663780e9d6360e01b148061064c575061064c8261139c565b92915050565b606060008054610661906125e4565b80601f016020809104026020016040519081016040528092919081815260200182805461068d906125e4565b80156106da5780601f106106af576101008083540402835291602001916106da565b820191906000526020600020905b8154815290600101906020018083116106bd57829003601f168201915b5050505050905090565b6000818152600260205260408120546001600160a01b03166107625760405162461bcd60e51b815260206004820152602c60248201527f4552433732313a20617070726f76656420717565727920666f72206e6f6e657860448201526b34b9ba32b73a103a37b5b2b760a11b60648201526084015b60405180910390fd5b506000908152600460205260409020546001600160a01b031690565b600061078982610c6c565b9050806001600160a01b0316836001600160a01b031614156107f75760405162461bcd60e51b815260206004820152602160248201527f4552433732313a20617070726f76616c20746f2063757272656e74206f776e656044820152603960f91b6064820152608401610759565b806001600160a01b03166108096113ec565b6001600160a01b031614806108255750610825816105d96113ec565b6108975760405162461bcd60e51b815260206004820152603860248201527f4552433732313a20617070726f76652063616c6c6572206973206e6f74206f7760448201527f6e6572206e6f7220617070726f76656420666f7220616c6c00000000000000006064820152608401610759565b6108a183836113fb565b505050565b60408051606081810183526001600160a01b0388166000818152600c6020908152908590205484528301529181018690526108e48782878787611469565b61093a5760405162461bcd60e51b815260206004820152602160248201527f5369676e657220616e64207369676e617475726520646f206e6f74206d6174636044820152600d60fb1b6064820152608401610759565b6001600160a01b0387166000908152600c602052604090205461095e906001611559565b6001600160a01b0388166000908152600c60205260409081902091909155517f5845892132946850460bff5a0083f71031bc5bf9aadcd40f1de79423eac9b10b906109ae90899033908a90612418565b60405180910390a1600080306001600160a01b0316888a6040516020016109d692919061235b565b60408051601f19818403018152908290526109f09161233f565b6000604051808303816000865af19150503d8060008114610a2d576040519150601f19603f3d011682016040523d82523d6000602084013e610a32565b606091505b509150915081610a845760405162461bcd60e51b815260206004820152601c60248201527f46756e6374696f6e2063616c6c206e6f74207375636365737366756c000000006044820152606401610759565b98975050505050505050565b610aa1610a9b6113ec565b8261156c565b610abd5760405162461bcd60e51b815260040161075990612524565b6108a1838383611663565b6000610ad383610ce3565b8210610b355760405162461bcd60e51b815260206004820152602b60248201527f455243373231456e756d657261626c653a206f776e657220696e646578206f7560448201526a74206f6620626f756e647360a81b6064820152608401610759565b506001600160a01b03919091166000908152600660209081526040808320938352929052205490565b610b666113ec565b6001600160a01b0316610b81600d546001600160a01b031690565b6001600160a01b031614610ba75760405162461bcd60e51b8152600401610759906124ef565b8051610bba90600f906020840190611ebe565b5050565b6108a1838383604051806020016040528060008152506111cb565b6000610be460085490565b8210610c475760405162461bcd60e51b815260206004820152602c60248201527f455243373231456e756d657261626c653a20676c6f62616c20696e646578206f60448201526b7574206f6620626f756e647360a01b6064820152608401610759565b60088281548110610c5a57610c5a612690565b90600052602060002001549050919050565b6000818152600260205260408120546001600160a01b03168061064c5760405162461bcd60e51b815260206004820152602960248201527f4552433732313a206f776e657220717565727920666f72206e6f6e657869737460448201526832b73a103a37b5b2b760b91b6064820152608401610759565b60006001600160a01b038216610d4e5760405162461bcd60e51b815260206004820152602a60248201527f4552433732313a2062616c616e636520717565727920666f7220746865207a65604482015269726f206164647265737360b01b6064820152608401610759565b506001600160a01b031660009081526003602052604090205490565b610d726113ec565b6001600160a01b0316610d8d600d546001600160a01b031690565b6001600160a01b031614610db35760405162461bcd60e51b8152600401610759906124ef565b600d546040516000916001600160a01b0316907f8be0079c531659141344cd1fd0a4f28419497f9722a3daafe3b4186f6b6457e0908390a3600d80546001600160a01b0319169055565b60118054610e0a906125e4565b80601f0160208091040260200160405190810160405280929190818152602001828054610e36906125e4565b8015610e835780601f10610e5857610100808354040283529160200191610e83565b820191906000526020600020905b815481529060010190602001808311610e6657829003601f168201915b505050505081565b610e936113ec565b6001600160a01b0316610eae600d546001600160a01b031690565b6001600160a01b031614610ed45760405162461bcd60e51b8152600401610759906124ef565b601054600e5410610f315760405162461bcd60e51b815260206004820152602160248201527f43616e206e6f74206d696e74206d6f7265207468616e206d617820737570706c6044820152607960f81b6064820152608401610759565b6000610f3b61180e565b9050610f47828261181f565b610bba61196d565b610f576113ec565b6001600160a01b0316610f72600d546001600160a01b031690565b6001600160a01b031614610f985760405162461bcd60e51b8152600401610759906124ef565b8051610bba906011906020840190611ebe565b606060018054610661906125e4565b610fc26113ec565b6001600160a01b0316826001600160a01b031614156110235760405162461bcd60e51b815260206004820152601960248201527f4552433732313a20617070726f766520746f2063616c6c6572000000000000006044820152606401610759565b80600560006110306113ec565b6001600160a01b03908116825260208083019390935260409182016000908120918716808252919093529120805460ff1916921515929092179091556110746113ec565b6001600160a01b03167f17307eab39ab6107e8899845ad3d59bd9653f200f220920489ca2b5937696c31836040516110b0911515815260200190565b60405180910390a35050565b606060126110f56103e86110d0818661263a565b6110dc6127108761263a565b6110e691906125a1565b6110f0919061258d565b611984565b6111106064611104818761263a565b6110dc6103e88861263a565b61112a600a61111f818861263a565b6110dc60648961263a565b6111386110f0600a8861263a565b60405160200161114c9594939291906123b7565b6040516020818303038152906040529050919050565b60128054610e0a906125e4565b6111776113ec565b6001600160a01b0316611192600d546001600160a01b031690565b6001600160a01b0316146111b85760405162461bcd60e51b8152600401610759906124ef565b8051610bba906012906020840190611ebe565b6111dc6111d66113ec565b8361156c565b6111f85760405162461bcd60e51b815260040161075990612524565b61120484848484611a82565b50505050565b6060600f61121783611984565b60405160200161114c929190612392565b600f8054610e0a906125e4565b61123d6113ec565b6001600160a01b0316611258600d546001600160a01b031690565b6001600160a01b03161461127e5760405162461bcd60e51b8152600401610759906124ef565b6001600160a01b0381166112e35760405162461bcd60e51b815260206004820152602660248201527f4f776e61626c653a206e6577206f776e657220697320746865207a65726f206160448201526564647265737360d01b6064820152608401610759565b600d546040516001600160a01b038084169216907f8be0079c531659141344cd1fd0a4f28419497f9722a3daafe3b4186f6b6457e090600090a3600d80546001600160a01b0319166001600160a01b0392909216919091179055565b60003330141561139657600080368080601f0160208091040260200160405190810160405280939291908181526020018383808284376000920191909152505050503601516001600160a01b031691506113999050565b50335b90565b60006001600160e01b031982166380ac58cd60e01b14806113cd57506001600160e01b03198216635b5e139f60e01b145b8061064c57506301ffc9a760e01b6001600160e01b031983161461064c565b60006113f661133f565b905090565b600081815260046020526040902080546001600160a01b0319166001600160a01b038416908117909155819061143082610c6c565b6001600160a01b03167f8c5be1e5ebec7d5bd14f71427d1e84f3dd0314c0f7b2291e5b200ac8c7c3b92560405160405180910390a45050565b60006001600160a01b0386166114cf5760405162461bcd60e51b815260206004820152602560248201527f4e61746976654d6574615472616e73616374696f6e3a20494e56414c49445f5360448201526424a3a722a960d91b6064820152608401610759565b60016114e26114dd87611ab5565b611b32565b6040805160008152602081018083529290925260ff851690820152606081018690526080810185905260a0016020604051602081039080840390855afa158015611530573d6000803e3d6000fd5b505050602060405103516001600160a01b0316866001600160a01b031614905095945050505050565b60006115658284612575565b9392505050565b6000818152600260205260408120546001600160a01b03166115e55760405162461bcd60e51b815260206004820152602c60248201527f4552433732313a206f70657261746f7220717565727920666f72206e6f6e657860448201526b34b9ba32b73a103a37b5b2b760a11b6064820152608401610759565b60006115f083610c6c565b9050806001600160a01b0316846001600160a01b0316148061162b5750836001600160a01b0316611620846106e4565b6001600160a01b0316145b8061165b57506001600160a01b0380821660009081526005602090815260408083209388168352929052205460ff165b949350505050565b826001600160a01b031661167682610c6c565b6001600160a01b0316146116de5760405162461bcd60e51b815260206004820152602960248201527f4552433732313a207472616e73666572206f6620746f6b656e2074686174206960448201526839903737ba1037bbb760b91b6064820152608401610759565b6001600160a01b0382166117405760405162461bcd60e51b8152602060048201526024808201527f4552433732313a207472616e7366657220746f20746865207a65726f206164646044820152637265737360e01b6064820152608401610759565b61174b838383611b62565b6117566000826113fb565b6001600160a01b038316600090815260036020526040812080546001929061177f9084906125a1565b90915550506001600160a01b03821660009081526003602052604081208054600192906117ad908490612575565b909155505060008181526002602052604080822080546001600160a01b0319166001600160a01b0386811691821790925591518493918716917fddf252ad1be2c89b69c2b068fc378daa952ba7f163c4a11628f55a4df523b3ef91a4505050565b600e546000906113f6906001611559565b6001600160a01b0382166118755760405162461bcd60e51b815260206004820181905260248201527f4552433732313a206d696e7420746f20746865207a65726f20616464726573736044820152606401610759565b6000818152600260205260409020546001600160a01b0316156118da5760405162461bcd60e51b815260206004820152601c60248201527f4552433732313a20746f6b656e20616c7265616479206d696e746564000000006044820152606401610759565b6118e660008383611b62565b6001600160a01b038216600090815260036020526040812080546001929061190f908490612575565b909155505060008181526002602052604080822080546001600160a01b0319166001600160a01b03861690811790915590518392907fddf252ad1be2c89b69c2b068fc378daa952ba7f163c4a11628f55a4df523b3ef908290a45050565b600e805490600061197d8361261f565b9190505550565b6060816119a85750506040805180820190915260018152600360fc1b602082015290565b8160005b81156119d257806119bc8161261f565b91506119cb9050600a8361258d565b91506119ac565b60008167ffffffffffffffff8111156119ed576119ed6126a6565b6040519080825280601f01601f191660200182016040528015611a17576020820181803683370190505b5090505b841561165b57611a2c6001836125a1565b9150611a39600a8661263a565b611a44906030612575565b60f81b818381518110611a5957611a59612690565b60200101906001600160f81b031916908160001a905350611a7b600a8661258d565b9450611a1b565b611a8d848484611663565b611a9984848484611c1a565b6112045760405162461bcd60e51b81526004016107599061249d565b60006040518060800160405280604381526020016126d66043913980516020918201208351848301516040808701518051908601209051611b15950193845260208401929092526001600160a01b03166040830152606082015260800190565b604051602081830303815290604052805190602001209050919050565b6000611b3d600b5490565b60405161190160f01b6020820152602281019190915260428101839052606201611b15565b6001600160a01b038316611bbd57611bb881600880546000838152600960205260408120829055600182018355919091527ff3f7a9fe364faab93b216da50a3214154f22a0a2b415b23a84c8169e8b636ee30155565b611be0565b816001600160a01b0316836001600160a01b031614611be057611be08382611d2e565b6001600160a01b038216611bf7576108a181611dcb565b826001600160a01b0316826001600160a01b0316146108a1576108a18282611e7a565b60006001600160a01b0384163b15611d2357836001600160a01b031663150b7a02611c436113ec565b8786866040518563ffffffff1660e01b8152600401611c65949392919061244d565b602060405180830381600087803b158015611c7f57600080fd5b505af1925050508015611caf575060408051601f3d908101601f19168201909252611cac918101906121fa565b60015b611d09573d808015611cdd576040519150601f19603f3d011682016040523d82523d6000602084013e611ce2565b606091505b508051611d015760405162461bcd60e51b81526004016107599061249d565b805181602001fd5b6001600160e01b031916630a85bd0160e11b14905061165b565b506001949350505050565b60006001611d3b84610ce3565b611d4591906125a1565b600083815260076020526040902054909150808214611d98576001600160a01b03841660009081526006602090815260408083208584528252808320548484528184208190558352600790915290208190555b5060009182526007602090815260408084208490556001600160a01b039094168352600681528383209183525290812055565b600854600090611ddd906001906125a1565b60008381526009602052604081205460088054939450909284908110611e0557611e05612690565b906000526020600020015490508060088381548110611e2657611e26612690565b6000918252602080832090910192909255828152600990915260408082208490558582528120556008805480611e5e57611e5e61267a565b6001900381819060005260206000200160009055905550505050565b6000611e8583610ce3565b6001600160a01b039093166000908152600660209081526040808320868452825280832085905593825260079052919091209190915550565b828054611eca906125e4565b90600052602060002090601f016020900481019282611eec5760008555611f32565b82601f10611f0557805160ff1916838001178555611f32565b82800160010185558215611f32579182015b82811115611f32578251825591602001919060010190611f17565b50611f3e929150611f42565b5090565b5b80821115611f3e5760008155600101611f43565b600067ffffffffffffffff80841115611f7257611f726126a6565b604051601f8501601f19908116603f01168101908282118183101715611f9a57611f9a6126a6565b81604052809350858152868686011115611fb357600080fd5b858560208301376000602087830101525050509392505050565b80356001600160a01b0381168114611fe457600080fd5b919050565b600082601f830112611ffa57600080fd5b61156583833560208501611f57565b60006020828403121561201b57600080fd5b61156582611fcd565b6000806040838503121561203757600080fd5b61204083611fcd565b915061204e60208401611fcd565b90509250929050565b60008060006060848603121561206c57600080fd5b61207584611fcd565b925061208360208501611fcd565b9150604084013590509250925092565b600080600080608085870312156120a957600080fd5b6120b285611fcd565b93506120c060208601611fcd565b925060408501359150606085013567ffffffffffffffff8111156120e357600080fd5b6120ef87828801611fe9565b91505092959194509250565b6000806040838503121561210e57600080fd5b61211783611fcd565b91506020830135801515811461212c57600080fd5b809150509250929050565b600080600080600060a0868803121561214f57600080fd5b61215886611fcd565b9450602086013567ffffffffffffffff81111561217457600080fd5b61218088828901611fe9565b9450506040860135925060608601359150608086013560ff811681146121a557600080fd5b809150509295509295909350565b600080604083850312156121c657600080fd5b6121cf83611fcd565b946020939093013593505050565b6000602082840312156121ef57600080fd5b8135611565816126bc565b60006020828403121561220c57600080fd5b8151611565816126bc565b60006020828403121561222957600080fd5b813567ffffffffffffffff81111561224057600080fd5b8201601f8101841361225157600080fd5b61165b84823560208401611f57565b60006020828403121561227257600080fd5b5035919050565b600081518084526122918160208601602086016125b8565b601f01601f19169290920160200192915050565b8054600090600181811c90808316806122bf57607f831692505b60208084108214156122e157634e487b7160e01b600052602260045260246000fd5b8180156122f5576001811461230657612333565b60ff19861689528489019650612333565b60008881526020902060005b8681101561232b5781548b820152908501908301612312565b505084890196505b50505050505092915050565b600082516123518184602087016125b8565b9190910192915050565b6000835161236d8184602088016125b8565b60609390931b6bffffffffffffffffffffffff19169190920190815260140192915050565b600061239e82856122a5565b83516123ae8183602088016125b8565b01949350505050565b60006123c382886122a5565b86516123d3818360208b016125b8565b86519101906123e6818360208a016125b8565b85519101906123f98183602089016125b8565b845191019061240c8183602088016125b8565b01979650505050505050565b6001600160a01b0384811682528316602082015260606040820181905260009061244490830184612279565b95945050505050565b6001600160a01b038581168252841660208201526040810183905260806060820181905260009061248090830184612279565b9695505050505050565b6020815260006115656020830184612279565b60208082526032908201527f4552433732313a207472616e7366657220746f206e6f6e20455243373231526560408201527131b2b4bb32b91034b6b83632b6b2b73a32b960711b606082015260800190565b6020808252818101527f4f776e61626c653a2063616c6c6572206973206e6f7420746865206f776e6572604082015260600190565b60208082526031908201527f4552433732313a207472616e736665722063616c6c6572206973206e6f74206f6040820152701ddb995c881b9bdc88185c1c1c9bdd9959607a1b606082015260800190565b600082198211156125885761258861264e565b500190565b60008261259c5761259c612664565b500490565b6000828210156125b3576125b361264e565b500390565b60005b838110156125d35781810151838201526020016125bb565b838111156112045750506000910152565b600181811c908216806125f857607f821691505b6020821081141561261957634e487b7160e01b600052602260045260246000fd5b50919050565b60006000198214156126335761263361264e565b5060010190565b60008261264957612649612664565b500690565b634e487b7160e01b600052601160045260246000fd5b634e487b7160e01b600052601260045260246000fd5b634e487b7160e01b600052603160045260246000fd5b634e487b7160e01b600052603260045260246000fd5b634e487b7160e01b600052604160045260246000fd5b6001600160e01b0319811681146126d257600080fd5b5056fe4d6574615472616e73616374696f6e2875696e74323536206e6f6e63652c616464726573732066726f6d2c62797465732066756e6374696f6e5369676e617475726529a2646970667358221220052d5374c09cfb6715d45f9e2898017bbe6487f9bdb35c8961b66dd9e5b866ff64736f6c63430008060033454950373132446f6d61696e28737472696e67206e616d652c737472696e672076657273696f6e2c6164647265737320766572696679696e67436f6e74726163742c627974657333322073616c7429",
  "linkReferences": {},
  "deployedLinkReferences": {}
}